:100000000000022051C9000035C7000045C70000AC
:10001000A5C70000B5C70000C5C70000000000006C
:10002000000000000000000000000000D5C7000034
:10003000E5C700000000000081C60000C5C8000040
:10004000F5C70000F5C70000F5C70000F5C70000C0
:10005000F5C70000F5C70000F5C70000F5C70000B0
:10006000F5C70000F5C70000F5C70000F5C70000A0
:10007000F5C70000F5C70000F5C70000F5C7000090
:10008000F5C70000F5C70000F5C70000F5C7000080
:10009000F5C70000F5C70000F5C70000F5C7000070
:1000A000F5C70000F5C70000F5C70000F5C7000060
:1000B000F5C70000F5C70000F5C70000F5C7000050
:1000C000F5C70000F5C70000F5C70000F5C7000040
:1000D000F5C70000F5C70000F5C70000F5C7000030
:1000E000F5C70000F5C70000F5C70000F5C7000020
:1000F000F5C70000F5C70000F5C70000F5C7000010
:1001000080B500AF0BF094FC00BF80BD80B584B01B
:1001100000AF78600BF072FFF86007F10B0301216C
:1001200018460BF05BFCF8680BF050FFFB7A1846A2
:100130001037BD4680BD80B586B000AF78607B6863
:100140007B6100233B610BF059FF0346FB600121FB
:1001500078690BF043FC012178690BF015FC7B6991
:100160001B780D2B04D101210F480BF00DFC0EE084
:100170007B691B78032B03D14FF0FF333B6106E013
:100180007B6901337B613B6901333B61DFE77B695D
:1001900000221A70FB6818460BF018FF3B691846DE
:1001A0001837BD4680BD00BF8CFB000080B584B011
:1001B00000AF78607B68DBB2FB720BF01FFF034679
:1001C000FB60FB7A0A2B03D1012109480BF0DCFB11
:1001D00007F10B03012118460BF0D6FBFB6818460C
:1001E0000BF0F4FE002318461037BD4680BD00BF5B
:1001F0008DFB000080B584B000AF78607B68FB6049
:100200000BF0FCFE0346BB6006E0FB685A1CFA607C
:100210001B781846FFF7CAFFFB681B78002BF4D148
:10022000BB6818460BF0D2FE002318461037BD46B7
:1002300080BD00BF80B487B000AFF860B9601346DE
:10024000FB71FB799B10DBB203F01003FB75FB79AC
:1002500003F03F03FB7114E0FA79BB68B3FBF2F1E2
:1002600001FB02F29A1AFB7D1344FA68013AFA6024
:100270000E4AD25CFB681A70FB79BA68B2FBF3F3E2
:10028000BB60FB79BA689A42E6D2FA7DBB68134438
:10029000FA68013AFA60054AD25CFB681A70FB689A
:1002A00018461C37BD4680BC704700BFA0FB00004D
:1002B00080B590B000AFF860B9607A603B60002311
:1002C0003B63A2E297F82730252B07D03B6B002B2E
:1002D00040F09B827B68013B3B6396E23B6B002BCB
:1002E00009D07A683B6BD31A591EFB68BA68386B21
:1002F000984700233B63002387F825307B685A1C0E
:100300007A601B7887F8273097F82730302B2AD06F
:10031000302B30DC2D2B0AD02D2B2CDC2B2B0DD0B1
:100320002B2B28DC202B10D0232B15D023E097F883
:10033000253043F0010387F825301BE097F825307E
:1003400043F0020387F8253014E097F8253043F096
:10035000040387F825300DE097F8253043F00803B3
:1003600087F8253006E097F8253043F0100387F82A
:10037000253000BFC2E700BF97F827302A2B19D1DC
:100380003B681A1D3A601B687B87B7F93A30002B2F
:1003900009DA7B8F5B429BB27B8797F8253043F06D
:1003A000010387F825307B685A1C7A601B7887F830
:1003B00027301EE000237B8713E07B8F1A469200D4
:1003C00013445B009AB297F827309BB213449BB258
:1003D000303B9BB27B877B685A1C7A601B7887F81E
:1003E000273097F827302F2B03D997F82730392B50
:1003F000E3D94FF6FF733B8797F827302E2B40D178
:100400007B685A1C7A601B7887F8273097F827306A
:100410002A2B11D13B681A1D3A601B683B87B7F93C
:100420003830002B01DA00233B877B685A1C7A6046
:100430001B7887F827301EE000233B8713E03B8FB3
:100440001A46920013445B009AB297F827309BB289
:1004500013449BB2303B9BB23B877B685A1C7A604B
:100460001B7887F8273097F827302F2B03D997F878
:100470002730392BE3D997F8253023F0100387F87C
:100480002530002387F8243097F82730682B03D0D5
:1004900097F827306C2B09D197F8273087F824304C
:1004A0007B685A1C7A601B7887F827300A2387F804
:1004B00026300023FB7407F114030E33BB6297F858
:1004C0002730782B2ED0782B00F31781752B29D06D
:1004D000752B00F31281732B00F0D880732B00F37F
:1004E0000C81702B00F0BA80702B00F306816F2B0B
:1004F00018D06F2B00F30181692B13D0692B00F307
:10050000FC80642B0ED0642B00F3F780632B00F08B
:10051000E180632B00F3F180002B00F0EA80582B80
:1005200040F0EB8097F824306C2B05D13B681A1D06
:100530003A601B68FB6317E03B681A1D3A601B6852
:10054000FB6397F82430682B0ED197F82730692B7E
:1005500003D097F82730642B03D1FB6B1BB2FB63EE
:1005600002E0FB6B9BB2FB6397F82730782B37D008
:10057000782B5FDC752B58D0752B5BDC6F2B34D060
:100580006F2B57DC692B05D0692B53DC582B22D0FD
:10059000642B4FD1FB6B002B05DAFB6B5B42FB63DB
:1005A0002D23FB7410E097F8253003F00203002B95
:1005B00002D02B23FB7407E097F8253003F00403E7
:1005C000002B34D02023FB74B7F93A309BB2013BA7
:1005D0009BB27B8729E097F82630403387F8263096
:1005E00097F82630083387F8263097F82630023BF4
:1005F00087F8263097F8253003F00803002B18D031
:10060000FB6B002B15D07A8F97F82630082B01D181
:10061000012300E00223D31A9BB27B8797F8263090
:1006200063F07F0387F8263003E000BF02E000BFDD
:1006300000E000BFFB6B002B03D1B7F93830002B73
:1006400009D097F826301A46F96BB86AFFF7F2FD21
:10065000F86200BF56E0BB6AFB6253E03B681A1DBC
:100660003A601B68FB63FB6B002B06D0902387F876
:1006700026307B8F023B9BB27B8797F826301A4649
:10068000F96BB86AFFF7D6FDF8623BE03B681A1DCC
:100690003A601B68FB62FB6ABB62B7F93830002B1B
:1006A0000BDA02E0BB6A0133BB62BB6A1B78002B2A
:1006B000F8D126E0BB6A0133BB623B8F013B9BB2A2
:1006C0003B87B7F93830002B1BDBBB6A1B78002B4C
:1006D000F0D116E0BB6AFB623B681A1D3A601A68EB
:1006E000FB6A013BFB62D2B2FB6A1A7000233B87B4
:1006F00008E07B68013B7B6087E07B68013B3B63F4
:1007000083E000BFBA6AFB6AD31AFB863A8FFB8E7E
:10071000D31A9BB23B87B7F93830002B04DDFA8E31
:100720003B8F13449BB2FB867A8FFB8ED31A9BB20E
:100730007B8797F8253003F01103002B0DD104E0DF
:10074000FB68BA6801213E4898477B8F013B9BB20A
:100750007B87B7F93A30002BF2DAFB7C002B05D00F
:1007600007F11300FB68BA680121984797F9263012
:10077000002B17DAFB68BA6801213248984797F8CE
:10078000263003F01003002B0CD097F8263003F02E
:100790004003002B01D02C4800E02C48FB68BA68CD
:1007A000012198473B8FFB86B7F93630002B0FDCD1
:1007B00097F8253003F01103102B09D17B8FFB86AE
:1007C00000237B8704E0FB68BA6801211D48984735
:1007D000FB8E013B9BB2FB86B7F93630002BF2DA79
:1007E000BA6AFB6AD11AFB68BA68F86A984704E0EB
:1007F000FB68BA680121124898477B8F013B9BB286
:100800007B87B7F93A30002BF2DA7B685A1C7A60A2
:100810001B7887F8273097F82730002B7FF452ADEC
:100820003B6B002B07D07A683B6BD31A591EFB68D1
:10083000BA68386B984700BF4037BD4680BD00BFDF
:1008400090FB000094FB000098FB00009CFB000064
:1008500080B584B000AFF860B9607A607B68B3F9A6
:1008600000309AB2BB689BB213449BB21AB27B6849
:100870001A8006E0FB685A1CFA601B781846FFF7DE
:1008800095FCBB68013BBB60BB68002BF2DA00BF84
:1008900000BF1037BD4680BD0FB480B582B000AF39
:1008A00000237B8007F114037B60B91C7B683A69E5
:1008B0000548FFF7FDFCB7F9023018460837BD467A
:1008C000BDE8804004B070475108000080B485B096
:1008D00000AFF860B9607A607B68B3F900309AB213
:1008E000BB689BB213449BB21AB27B681A8009E0C2
:1008F000FA68531CFB607B685B68581C7968486029
:1009000012781A70BB68013BBB60BB68002BEFDA42
:1009100000BF00BF1437BD4680BC70470EB480B521
:1009200087B000AF786000233B827B687B6107F172
:100930002803FB6007F11001FB687A6A0948FFF79A
:10094000B7FCB7F910301A467B68134400221A70BE
:10095000B7F9103018461C37BD46BDE8804003B0DB
:10096000704700BFCD08000080B584B000AF78604C
:100970000BF044FBF8607B681B685A1C7B681A60AC
:100980007B681B68BB60F8680BF020FBBB681846EF
:100990001037BD4680BD80B584B000AF78600BF0E5
:1009A0002DFBF8607B681B68591E7A681160BB607C
:1009B000F8680BF00BFBBB6818461037BD4680BDCE
:1009C00080B582B000AF78607868FFF7CDFF03464E
:1009D000002B07DD7B685B684FF0FF320121184672
:1009E00006F001FB00BF0837BD4680BD80B582B070
:1009F00000AF78607868FFF7CEFF0346002B05DD77
:100A00007B685B680121184606F016FA00BF0837BC
:100A1000BD4680BD80B58AB000AF786039600123E3
:100A2000FB6000233B6101237B6107F108037B62CC
:100A3000164B3B620023FB610AE03A6A531C3B629F
:100A40007B6A591C796212781A70FB690133FB6169
:100A5000FB69032BF1DD07F10803184606F022F9C4
:100A6000B861BB69002B01DABB690AE07B68BA692F
:100A70005A607B684FF0FF321A607B683A689A6070
:100A8000002318462837BD4680BD00BFC0FB0000CC
:100A900080B582B000AF78607B685B68002B04DDB6
:100AA0007B685B68184606F077F97B6800225A601D
:100AB00000BF0837BD4680BD80B584B000AF786008
:100AC0000BF09CFAF8607B681B685A1C7B681A6004
:100AD000F8680BF07BFA00BF1037BD4680BD80B5CB
:100AE00084B000AF78600BF089FAF8607B681B680F
:100AF0005A1E7B681A60F8680BF068FA00BF10375E
:100B0000BD4680BD80B586B000AF786039600122F7
:100B10003B6802FA03F37B610BF070FA38617B6883
:100B20001B687A691340FB607B681A687B691A430B
:100B30007B681A6038690BF049FAFB681846183769
:100B4000BD4680BD80B584B000AF786039600BF0E1
:100B500055FAF8607B681A6801213B6801FA03F3D3
:100B6000DB431A407B681A60F8680BF02FFA00BF6D
:100B70001037BD4680BD80B58AB002AFF860B9605D
:100B80007A600122BB6802FA03F3BB61FB6804339D
:100B90001846FFF791FFFB68B9681846FFF7B2FFE8
:100BA0000346002B02D10023FB6110E0FB6898682C
:100BB00007F114027B68009313462122B96902F001
:100BC000DFFBF861FB69002B00DBE4E700BFFB689B
:100BD00004331846FFF783FFFB6918462037BD46EC
:100BE00080BD80B582B000AF786039604FF0FF32D1
:100BF00039687868FFF7BFFF034618460837BD46D7
:100C000080BD80B584B000AF7860396001223B6858
:100C100002FA03F3BB607B6839681846FFF792FF5E
:100C20007B685B68002B07D07B689B68B9681846B7
:100C300002F0BAFAF86001E00023FB60FB68184696
:100C40001037BD4680BD80B58AB000AF786039608E
:100C500009233B6100237B6107F10C037B62174B87
:100C60003B620023FB610AE03A6A531C3B627B6AE9
:100C7000591C796212781A70FB690133FB61FB69B8
:100C8000032BF1DD07F10C03184602F0DDF9B86122
:100C90007B68BA699A60BB69002B01DABB6909E01D
:100CA0007B6800225A607B6800221A607B683A6881
:100CB000DA60002318462837BD4680BDC8FB000017
:100CC00080B584B000AF78607B689B68002B02DC45
:100CD0006FF010030EE07B689B68184602F014FA70
:100CE000F860FB68002B01DAFB6803E07B680022F8
:100CF0009A60002318461037BD4680BD80B582B08B
:100D000000AF78607B68184603F0B4FA03461846D3
:100D10000837BD4680BD80B582B000AF78603960CD
:100D20007B683A681146184603F0FAFA03461846FB
:100D30000837BD4680BD80B582B000AF78603960AD
:100D40003B681946786803F008FB034618460837E5
:100D5000BD4680BD80B582B000AF7860786803F092
:100D600030FB00BF0837BD4680BD80B400AF002314
:100D70001846BD4680BC7047F0B484B000AFF86040
:100D8000B9607A60FC68BB68DDB27B68072B12DC57
:100D900003E023465C1C2A461A707B685A1E7A6060
:100DA000002BF6DCFB682EE07B68013B7B60234672
:100DB0005C1C2A461A70234603F00303002BF3D170
:100DC00026462A4613461B021A442B461B041A4386
:100DD0002B461B0642EA030405E033461E1D1C6039
:100DE0007B68043B7B607B68032BF6DC344606E0C3
:100DF00023465C1C2A461A707B68013B7B607B683B
:100E0000002BF5D1FB6818461037BD46F0BC704783
:100E1000B0B485B000AFF860B9607A60FC68BD68B6
:100E200005E02A46551C23465C1C12781A707B6824
:100E30005A1E7A60002BF4DCFB6818461437BD4656
:100E4000B0BC704790B482B000AF78607C6800E0BE
:100E500001342378002BFBD17B68E31A184608374E
:100E6000BD4690BC704790B482B000AF78603960E6
:100E70007C6823465C1C3A6812781A703B685A1CDE
:100E80003A601B78002BF4D17B6818460837BD46C2
:100E900090BC704790B484B000AFF860B9607A60DD
:100EA000FC687B685A1E7A60002B01DCFB6815E049
:100EB00023465C1CBA6812781A70BB685A1CBA6068
:100EC0001B78002BEDD103E023465C1C00221A7036
:100ED0007B685A1E7A60002BF6DCFB6818461037D8
:100EE000BD4690BC704790B482B000AF7860396066
:100EF0000DE07B685A1C7A601B7819463B685A1CC7
:100F00003A601B78CC1A002C01D0234609E07B689C
:100F10001B78002BEDD17B681B781A463B681B7849
:100F2000D31A18460837BD4690BC704790B482B0BB
:100F300000AF786039607C6800E001342378002BD2
:100F4000FBD106E03B685A1C3A602246541C1B78D1
:100F500013703B681B78002BF4D1002323707B684F
:100F600018460837BD4690BC7047000080B400AFFB
:100F7000054B1B68002BCCBF01230023DBB21846B6
:100F8000BD4680BC704700BF1026002080B500AF72
:100F90000BF028F80346002B08D1FFF7E7FF0346C4
:100FA000002B03D1064B1B68002B02D16FF01803F6
:100FB00003E0044B02221A600023184680BD00BFE4
:100FC000381400203414002080B500AF0BF00AF86C
:100FD0000346002B08D1FFF7C9FF0346002B03D1BE
:100FE0000A4B1B68002B02D16FF018030BE0084B73
:100FF00000221A60054B1A68064B1B689A4201D002
:101000000BF032FB0023184680BD00BF38140020CF
:10101000341400203C14002080B588B000AFF86084
:10102000B9607A603B600023FB61FFF79FFF0346D6
:10103000002B03D1304B1B68002B02D16FF018033B
:1010400056E0FFF793FF0346002B09D12A4B1B689C
:10105000002B05D0FB68002B02D16FF0280347E07E
:10106000FB68002B02DDFB68202B02DD6FF0110313
:101070003EE0FFF77BFF0346002B0CD11E4B1B68A5
:10108000002B08D01C4B1B689B68FA689A4202D15F
:101090006FF028032CE0FB68013B682202FB03F39E
:1010A000164A1344BB610AF0A9FF7861BB6993F843
:1010B0002730002B03D16FF02903FB6105E03B686B
:1010C0007A68B968B8690BF071F97B69002B0BD1AC
:1010D000094B1A680A4B1B689A4205D0094B1B68DA
:1010E000002B01D10BF0C0FA78690AF06FFFFB69A1
:1010F00018462037BD4680BD38140020501500200A
:101100003C1400203414002080B588B000AFF86093
:10111000B9607A603B600023FB61FFF727FF03465D
:10112000002B03D1304B1B68002B02D16FF018034A
:1011300056E0FFF71BFF0346002B09D12A4B1B6823
:10114000002B05D0FB68002B02D16FF0280347E08D
:10115000FB68002B02DDFB68202B02DD6FF0110322
:101160003EE0FFF703FF0346002B0CD11E4B1B682C
:10117000002B08D01C4B1B689B68FA689A4202D16E
:101180006FF028032CE0FB68013B682202FB03F3AD
:10119000164A1344BB610AF031FF7861BB6993F8CA
:1011A0002730002B03D16FF02903FB6105E03B687A
:1011B0007A68B968B8690BF05DF97B69002B0BD1CF
:1011C000094B1A680A4B1B689A4205D0094B1B68E9
:1011D000002B01D10BF048FA78690AF0F7FEFB69A1
:1011E00018462037BD4680BD381400205015002019
:1011F0003C1400203414002080B588B000AFF860A3
:10120000B9607A600023FB61FFF7B0FE0346002B54
:1012100003D13A4B1B68002B02D16FF0180369E031
:10122000FFF7A4FE0346002B09D1344B1B68002BAB
:1012300005D0FB68002B02D16FF028035AE0FB6851
:10124000002B02DDFB68202B02DD6FF0110351E063
:10125000FFF78CFE0346002B0CD1284B1B68002B9C
:1012600008D0264B1B689B68FA689A4202D16FF03F
:1012700028033FE0FB68013B682202FB03F3204A9E
:101280001344BB61BB68002B0CDBBB68002B09DC83
:10129000BB691A694FF48051BB6801FA03F313402C
:1012A000002B02D16FF0100324E00AF0A7FE786152
:1012B000BB6993F82730002B03D16FF02903FB6142
:1012C00005E07A68B968B8690BF03DF9F8617B69A7
:1012D000002B0BD1094B1A680A4B1B689A4205D0A8
:1012E000094B1B68002B01D10BF0BEF978690AF09D
:1012F0006DFEFB6918462037BD4680BD38140020BE
:10130000501500203C1400203414002080B588B013
:1013100000AFF860B9607A600023FB61FFF726FE3A
:101320000346002B03D13A4B1B68002B02D16FF010
:10133000180369E0FFF71AFE0346002B09D1344B6E
:101340001B68002B05D0FB68002B02D16FF028032F
:101350005AE0FB68002B02DDFB68202B02DD6FF0FA
:10136000110351E0FFF702FE0346002B0CD1284B7E
:101370001B68002B08D0264B1B689B68FA689A42B2
:1013800002D16FF028033FE0FB68013B682202FBBB
:1013900003F3204A1344BB61BB68002B0CDBBB6822
:1013A000002B09DCBB691A694FF48051BB6801FA54
:1013B00003F31340002B02D16FF0100324E00AF076
:1013C0001DFE7861BB6993F82730002B03D16FF0C5
:1013D0002903FB6105E07A68B968B8690BF0F0F899
:1013E000F8617B69002B0BD1094B1A680A4B1B680B
:1013F0009A4205D0094B1B68002B01D10BF034F940
:1014000078690AF0E3FDFB6918462037BD4680BDC8
:1014100038140020501500203C1400203414002003
:1014200080B483B000AF78607B687A681A607B68AC
:101430007A685A6000BF0C37BD4680BC704780B4E4
:1014400083B000AF78607B681B687A689A420CBFF3
:1014500001230023DBB218460C37BD4680BC704721
:1014600080B483B000AF786039603B685A687B68AD
:101470005A607B683A681A603B685B687A681A60F1
:101480003B687A685A6000BF0C37BD4680BC704725
:1014900080B483B000AF78607B681B687A689A423A
:1014A00009D07B685B687A6812681A607B681B6881
:1014B0007A6852685A6000BF0C37BD4680BC7047DE
:1014C00080B485B000AF78607B681B687A689A4208
:1014D00001D100230BE07B681B68FB60FB681A6886
:1014E0007B681A60FB681B687A685A60FB6818465C
:1014F0001437BD4680BC704780B483B000AF7860BD
:101500007B681B127B607B68002B02DD7B68082BED
:1015100002DD6FF0110300E0002318460C37BD46D2
:1015200080BC704780B584B000AF7860114B1B68F9
:10153000FB6015E0FB68BB60BB681A7A7B681B78B0
:101540009A420AD1BB68083379681846FFF7CBFC8A
:101550000346002B01D1BB6807E0FB681B68FB60FA
:10156000FB68044A9342E5D1002318461037BD4674
:1015700080BD00BFBC03002080B584B000AF7860A0
:101580000F48FFF79DFFF860FB68002B01D1002397
:1015900011E0FB680833092279681846FFF77AFCE6
:1015A000FB6840331846FFF73BFFFB6805491846C8
:1015B000FFF756FFFB6818461037BD4680BD00BFD9
:1015C000C4030020BC03002080B582B000AF786067
:1015D0007B681846FFF75CFF7B6805491846FFF7F4
:1015E0003FFF7B6800221A7200BF0837BD4680BDEE
:1015F000C4030020B0B588B000AFF860B9607A606D
:1016000001214F48FFF7EDFAF868FFF71BFCB861BE
:10161000BB69002B02D0BB69082B03DD6FF0100300
:101620007B6184E0BB68002B27D0BB68DB68002BA4
:1016300003DBBB68DB68FF2B03DD6FF010037B610E
:1016400075E0BB68DB68002B02DDBB690133BB6161
:10165000BB68DB680A2B02DDBB690133BB61BB6879
:10166000DB68642B02DDBB690133BB61BB69082BFE
:1016700003DD6FF010037B6159E000213048FFF774
:10168000B0FAF868FFF74EFFF861FB69002B11D143
:10169000BB68002B03D16FF029037B6143E0F8683E
:1016A000FFF76AFFF861FB69002B03D16FF021039C
:1016B0007B6138E0BB68002B14D0FB69BA6803F18A
:1016C000140415460FCD0FC40FCD0FC495E80700C5
:1016D00084E807007B68002B13D07B68194A1268E6
:1016E0001A600EE0FB6940331846FFF7A8FE034678
:1016F000002B03D16FF040037B6114E0F869FFF722
:1017000063FF00210E48FFF77CFA01210C48FFF728
:1017100078FAFB690C4A9B1ADB100C4A02FB03F3B4
:1017200001331B0208E000210548FFF76AFA012196
:101730000348FFF766FA7B6918462037BD46B0BDFF
:1017400068010020780100207C010020398EE338F8
:1017500080B582B000AF786000210848FFF741FAF9
:101760007B68074A12681A6000210448FFF749FAAB
:10177000002318460837BD4680BD00BF6801002021
:101780007801002080B485B000AF786039600DE04A
:10179000FB7A2F2B02D9FB7A392B0ED97B685A1C86
:1017A0007A60FA7A1A703B6801333B603B681B78B9
:1017B000FB72FB7A002BEBD100E000BF7B680022BC
:1017C0001A700023FB60FB7A002B16D00CE0FA683D
:1017D00013469B0013445B001A46FB7A303B1344CC
:1017E000FB603B6801333B603B681B78FB72FB7A14
:1017F000002BECD1FB680133FB60FB681846143703
:10180000BD4680BC704780B588B000AFF860B96055
:101810007A60B968F868FFF726FB7B68002B34DD37
:1018200007F110030B33FB61FB6900221A7002E021
:10183000FB680133FB60FB681B78002BF8D17B68E9
:10184000013B7B607A68134B83FB02139910D3171B
:10185000C91A0B469B000B445B00D11ACBB2FA6944
:10186000013AFA613033DAB2FB691A707B68094ACF
:1018700082FB03129210DB17D31A7B607B68002B6C
:10188000E0D1F969F868FFF751FB00BF2037BD468A
:1018900080BD00BF6766666680B584B000AF7860C3
:1018A00039607868FFF728FEF860FB68002B37DBAB
:1018B00000211E48FFF795F97B681B121A46134654
:1018C000DB001344DB00483B194A1344BB60BB6890
:1018D0001B7A002B05D07B68DAB2BB681B6A9A4280
:1018E00008DD6FF02903FB6000BF00210F48FFF700
:1018F00088F916E0BB6808337A68D2B219463868AE
:10190000FFF781FF00210948FFF77BF9BB68084A10
:101910009B1ADB10074A02FB03F301331B0201E0B1
:1019200000BFFB6818461037BD4680BD6801002027
:101930007C010020398EE33880B588B000AF786034
:10194000396007F1080379681846FFF71BFFF86153
:1019500000212048FFF745F907F108031846FFF773
:10196000E1FDB861BB69002B04D0BB691B6AFA6951
:101970009A4209DD6FF029037B6100BF0021154801
:10198000FFF73FF97B6920E03B68002B0ED0BB6975
:10199000DA693B681A60BB695A6A3B685A60BB697E
:1019A0001A6A3B689A603B68FA69DA600021094864
:1019B000FFF727F9BB69084A9B1ADB10074A02FBAD
:1019C00003F301331A02FB69134418462037BD465E
:1019D00080BD00BF680100207C010020398EE33803
:1019E00080B586B000AF7860396000211F48FFF7EE
:1019F000F8F807F108031A460021786800F022FA87
:101A000078617B69002B27DBBB685B693B61BB6846
:101A10009B69FB603B68002B0ED03B69DA693B6831
:101A20001A603B695A6A3B685A603B691A6A3B68AC
:101A30009A603B68FA68DA6000210C48FFF7E1F829
:101A40003B690B4A9B1ADB100A4A02FB03F3013382
:101A50001A02FB68134405E000BF00210348FFF7AA
:101A6000D0F87B6918461837BD4680BD6801002054
:101A70007C010020398EE33880B58AB000AFF86071
:101A8000B9607A60BB68002B02DB7B68002B03DA4D
:101A90006FF01003FB6149E000212748FFF7A1F830
:101AA000BA687B681344BB6100233B62234B1B680D
:101AB0007B6227E03A6ABB689A421DDB3A6ABB69DF
:101AC0009A4219DA7B6A7B617B69DA69FB681A6082
:101AD0007B695A6AFB685A607B691A6AFB689A607C
:101AE000FB6803F10C007B69083308221946FFF7F5
:101AF000D1F9FB681433FB603B6A01333B627B6ABC
:101B00001B687B627B6A0D4A9342D3D100210A484D
:101B1000FFF777F8BA683B6A9A4203DB6FF0290354
:101B2000FB6103E03A6ABB68D31A00E0FB69184620
:101B30002837BD4680BD00BF68010020BC030020DF
:101B400080B588B000AFF860B9607A60F868FFF7D8
:101B5000D3FCF861FB69002B56DBBB68002B03DA72
:101B60006FF01003FB6150E000212A48FFF739F8BD
:101B7000FB681B121A461346DB001344DB00483B8C
:101B8000254A1344BB61BB691B7A002B05D0FB6857
:101B9000DAB2BB691B6A9A4208DD6FF02903FB6168
:101BA00000BF00211B48FFF72CF82EE0BB69DB6B60
:101BB0007B61BB695B693B6100211648FFF721F837
:101BC0000AF01CFA154B1B68B3F9222092B20132BD
:101BD00092B212B25A8400200AF0F8F97B693A698D
:101BE0007968B8689847F8610AF008FA0B4B1B68E7
:101BF000B3F9222092B2013A92B212B25A84002072
:101C00000AF0E4F9FB6901E000BFFB6918462037E0
:101C1000BD4680BD680100207C01002038140020F2
:101C200080B582B000AF08233B600F48FFF7F8FB98
:101C30000E48FFF7F5FB0E4B7B600AE07B680B4913
:101C40001846FFF70DFC7B6800221A727B68483348
:101C50007B603B685A1E3A60002BEFDC002318467D
:101C60000837BD4680BD00BFBC030020C403002070
:101C70007C01002080B483B000AF00237B60044A65
:101C80007B6813607B6818460C37BD4680BC704784
:101C90007801002080B582B000AF16491648FEF7E3
:101CA000D2FF78607B68002B15DBFFF7B9FF786007
:101CB0007B68002B11DB01F0C7F878607B68002B94
:101CC0000DDBFFF7D7FF78607B68002B09DB01F0A5
:101CD00067F8002309E000BF04E000BF02E000BF96
:101CE00000E000BF00F015F87B6818460837BD46D5
:101CF00080BD00BFD0FB00006801002080B483B02D
:101D000000AF00237B607B6818460C37BD4680BC63
:101D1000704780B582B000AF01F058F8FFF7EEFFD2
:101D2000786001F0DBF878600348FEF7C9FF7B6854
:101D300018460837BD4680BD6801002080B483B0D6
:101D400000AF78607B687A681A607B687A685A604E
:101D500000BF0C37BD4680BC704780B483B000AF75
:101D600078607B681B687A689A420CBF0123002365
:101D7000DBB218460C37BD4680BC704780B483B0D8
:101D800000AF786039603B685A687B685A607B684E
:101D90003A681A603B685B687A681A603B687A68E0
:101DA0005A6000BF0C37BD4680BC704780B483B01A
:101DB00000AF78607B681B687A689A4209D07B68BC
:101DC0005B687A6812681A607B681B687A68526878
:101DD0005A6000BF0C37BD4680BC704780B485B0E8
:101DE00000AF78607B681B687A689A4201D1002353
:101DF0000BE07B681B68FB60FB681A687B681A60F5
:101E0000FB681B687A685A60FB6818461437BD4641
:101E100080BC704780B500AF00210848FEF7E1FEA6
:101E2000074B1B68002B02D10548FFF787FF0021F5
:101E30000248FEF7E6FE024B184680BD680100200E
:101E40001C0B002080B487B000AFF860B9607A60E6
:101E5000FB68002B02DDFB68102B02DD6FF0110325
:101E60001EE0FB6803F18063013B9B010F4A1344B2
:101E70007B617B691B69002B02D16FF011030FE0BE
:101E8000BB68002B08D07B69DA69BB681340002B64
:101E900002D16FF01A0303E07B687A691A600023AD
:101EA00018461C37BD4680BC704700BFCC030020DD
:101EB00080B582B000AF786039607B681846FFF764
:101EC00075FF7B6808331846FFF770FF3B68002BEF
:101ED00004D07B6805491846FFF750FF7B68002255
:101EE0001A6100BF0837BD4680BD00BFCC07002087
:101EF00080B582B000AF78607B681846FFF756FF68
:101F00007B6805491846FFF739FF7B6800229A6015
:101F100000BF0837BD4680BD140B002080B485B0DB
:101F200000AF786039607B681B6CFB6009E0FB6880
:101F30009B693A689A4201D1012308E0FB681B685B
:101F4000FB607B684033FA689A42F0D10023184660
:101F50001437BD4680BC704780B586B000AFF860CE
:101F6000B9607A603B601B48FFF738FF78617B6996
:101F7000002B01D1002328E07A69FB684033194621
:101F80001046FFF7FBFE7B6908333A681146184696
:101F9000FFF7F4FE7B69FA685A617B69BA689A6157
:101FA0007B697A68DA617B6920331846FFF7C6FEE1
:101FB0007B6900221A857B6900221A637B690022F3
:101FC0005A637B6900221A617B6918461837BD463F
:101FD00080BD00BFCC07002080B48BB000AFF8609C
:101FE000B9607A607B6803F00303002B02D16FF0C5
:101FF000100372E000237B617B69BB61BB69FB61FD
:10200000FB693B62FB681B6C7B6234E07B6A3B6173
:10201000BB68002B08D03B699B69002B04D03B694F
:102020009B69BA689A4223D13B69DB6903F00103DB
:10203000002B02D03B6A01333B623B69DB6903F052
:102040000203002B02D0FB690133FB613B69DB69B2
:1020500003F4A063002B02D0BB690133BB613B6971
:10206000DB6903F44073002B02D07B6901337B6191
:102070007B6A1B687B62FB6840337A6A9A42C5D1EF
:102080007B6803F4A063002B05D03B6A002B02DDC4
:102090006FF0400321E07B6803F44073002B05D010
:1020A000FB69002B02DD6FF0400316E07B6803F054
:1020B0000103002B05D0BB69002B02DD6FF040034C
:1020C0000BE07B6803F00203002B05D07B69002B3B
:1020D00002DD6FF0400300E0002318462C37BD46B8
:1020E00080BC704780B58EB000AF7860396007F172
:1020F0000C0379681846FFF745FBF862FFF78AFE84
:10210000B862BB6A002B03D16FF018033B63ABE0EE
:1021100000215848FEF765FD07F10C031846FFF74C
:1021200001FA78627B6A002B04D07B6A1B6AFA6A28
:102130009A4203DD6FF029033B6391E03A68F96A44
:10214000786AFFF749FF38633B6B002BC0F287804A
:102150007B6A9B6A7B637B6A5B693B62F96A786A2C
:10216000FFF7DCFE0346002B07D07B6A9B6903F078
:102170000103002B01D100237B63BB6A3A68F96A33
:10218000786AFFF7E9FEF861FB69002B03D16FF075
:1021900021033B6364E0384804F084FDB861BB6907
:1021A000002B03DA6FF004033B6353E0FB69BA6969
:1021B000DA6300212F48FEF724FD7B6B002B2ED025
:1021C00009F01CFF2D4B1B68B3F9222092B201329B
:1021D00092B212B25A84002009F0F8FE7B6A284AB3
:1021E0009B1ADB10274A02FB03F301331A02FB6A36
:1021F000D0187B6B3A6A39689847386309F0FEFE5D
:102200001E4B1B68B3F9222092B2013A92B212B26D
:102210005A84002009F0DAFE3B6B002B10DB002112
:102220001448FEF7DEFCFB6901221A610021114807
:10223000FEF7E7FCFB69144A9B1A9B11013314E07B
:1022400000BF00210B48FEF7CCFCFB69DB6B184696
:1022500004F0A2FD0121F869FFF72AFE00E000BFAB
:1022600000210448FEF7CDFC3B6B18463837BD46CD
:1022700080BD00BF68010020D8FB0000381400209A
:102280007C010020398EE338CC03002090B589B062
:1022900000AF786000217648FEF7A3FC7B685B699D
:1022A000BB61BB699B6B7B61BB695B6B3B61BB6962
:1022B0005B69FB6005F0C8FE02467B685A637B6879
:1022C00000229A637B681B6B002B2EDD7B68DB6A28
:1022D000103BBB6009F092FE664B1B68B3F92220ED
:1022E00092B2013292B212B25A84002009F06EFE0C
:1022F000BB68D8687B68D96A7B681A6B7C69FB68A5
:10230000A04709F07BFE5B4B1B68B3F9222092B219
:10231000013A92B212B25A84002009F057FE7B684B
:102320009B6B5A1C7B689A6342E07B681B6AFB616B
:1023300039E0FB69BB60BB68DB68002B2FD0BA6853
:10234000137F43F01003137709F058FE494B1B68C5
:10235000B3F9222092B2013292B212B25A84002012
:1023600009F034FEBB68D868BB6803F110017C69D2
:10237000FB680122A04709F041FE3E4B1B68B3F900
:10238000222092B2013A92B212B25A84002009F08D
:102390001DFE7B689B6B5A1C7B689A6300E000BF44
:1023A000FB691B68FB617B682033FA699A42C0D1E4
:1023B00000212F48FEF725FC7B689B6B002B07DD77
:1023C0007B68DB6B4FF0FF320121184604F00BFEF7
:1023D0007B6800225A6300212548FEF702FC37E0A3
:1023E0007B681B6ABB60BA68137F43F010031377E6
:1023F00000211F48FEF705FC09F000FE1D4B1B687D
:10240000B3F9222092B2013292B212B25A84002061
:1024100009F0DCFDBB6803F110003C69FB684FF07C
:10242000FF320121A04709F0E9FD124B1B68B3F907
:10243000222092B2013A92B212B25A84002009F0DC
:10244000C5FD00210A48FEF7CCFBB868FFF750FD38
:102450007B6820331846FFF780FC0346002BBFD073
:1024600000210348FEF7CDFB00BF2437BD4690BDD9
:10247000680100203814002080B588B000AF786073
:1024800039600023BB617868FFF700FF00213948FD
:10249000FEF7A7FB7B685B697B617B689B693B619F
:1024A0007B69DB6AFB617B695B69FB607B69324A44
:1024B0009B1ADB10314A02FB03F301331B023A691A
:1024C0001344BB607B68DB6B184604F065FC00219D
:1024D0007868FFF7EDFC39697869FFF71FFD03465F
:1024E000002B0BD03B6823F001033B607B699B69A9
:1024F00003F00103002B01D10023FB6100211D48E3
:10250000FEF77FFBFB69002B21D009F077FD1C4B08
:102510001B68B3F9222092B2013292B212B25A84ED
:10252000002009F053FDFB69FA683968B8689847DC
:10253000B86109F063FD124B1B68B3F9222092B217
:10254000013A92B212B25A84002009F03FFD0021F4
:102550000848FEF746FB7B680A491846FFF70EFC61
:1025600000210448FEF74DFBBB6918462037BD46E5
:1025700080BD00BF680100207C010020398EE33857
:1025800038140020CC07002080B584B000AF7860FC
:10259000396000211248FEF724FB07F108031A46B0
:1025A00000217868FFF74EFCF860FB68002B04DA26
:1025B00000210B48FEF725FB0CE0BB6800221A61E6
:1025C00000210748FEF71DFBBB6839681846FFF776
:1025D00053FFF860FB6818461037BD4680BD00BF4A
:1025E0006801002080B584B000AF78600B48FFF729
:1025F000F5FBF860FB68002B01D100230AE0FA68C4
:102600007B68203319461046FFF7B8FBFB687A68F1
:102610009A60FB6818461037BD4680BD140B002039
:1026200080B58CB000AFF860B9607A603B60002183
:102630006648FEF7D6FABB6813F5803F06DCBB6838
:10264000B3F1004F02D00023FB6207E0FB6B012BCC
:1026500002D10123FB6201E00223FB6207F11403B4
:102660001A46F96AF868FFF7EDFBB862BB6A002BFF
:10267000C0F2A1807B695B697B627B6A1B6B3B62FA
:102680007B6A5B69FB617B691846FFF7ABFFB8614A
:10269000BB69002B03D16FF02103BB628CE0BB69E7
:1026A00000221A61BB6900225A617B6A484A9B1A60
:1026B000DB10484A02FB03F301331A027B699B6972
:1026C0001A44BB699A61FB6B1B015BB21B1159B2C7
:1026D000BA69137F61F303031377BA69137F23F099
:1026E00010031377BB69BA681A62BB693A685A6209
:1026F000BB697A689A62BB690022DA62BB69002210
:102700001A6305F0A1FC0246BB69DA6000212F487C
:10271000FEF777FA09F072FC2F4B1B68B3F9222001
:1027200092B2013292B212B25A84002009F04EFCE9
:10273000BB6903F110003B6AFA69B96B9847B8624C
:1027400009F05CFC244B1B68B3F9222092B2013AD9
:1027500092B212B25A84002009F038FC00211B48C2
:10276000FEF73FFABB690022DA607B695B6B002BE6
:102770000CDD7B699A6B013A9A639B6B002B05D148
:102780007B69DB6B0121184604F056FBBB6A002B0A
:102790000CDB00210D48FEF734FABB690F4A9B1A87
:1027A0009B100F4A02FB03F301330AE000BFB86934
:1027B000FFF79EFB00E000BF00210448FEF721FA6E
:1027C000BB6A18463037BD4680BD00BF6801002097
:1027D0007C010020398EE33838140020D407002013
:1027E000C54EECC480B588B002AFF860B9607A60BD
:1027F0003B60012301933B6A00933B687A68B968A8
:10280000F868FFF70DFF78617B6918461837BD46F9
:1028100080BD80B588B002AFF860B9607A603B6077
:102820004FF0FF3300933B687A68B968F868FFF7A8
:10283000D9FF78617B69002B0FDB07F110034FF0A4
:10284000FF3200923A6A7969F86800F075F87861A9
:102850007B69002B03DB3B6903E000BF00E000BFA6
:102860007B6918461837BD4680BD80B588B002AF79
:10287000F860B9607A603B60022301933B6A009381
:102880003B687A68B968F868FFF7CAFE78617B69C7
:1028900018461837BD4680BD80B588B002AFF860D5
:1028A000B9607A603B604FF0FF3300933B687A6811
:1028B000B968F868FFF7D9FF78617B69002B0FDBF7
:1028C00007F110034FF0FF3200923A6A7969F86815
:1028D00000F032F878617B69002B03DB3B6903E091
:1028E00000BF00E000BF7B6918461837BD4680BDB9
:1028F00080B485B000AF786039607B68002B02DD62
:102900007B68102B01DD00230FE07B68342202FB83
:1029100003F3343B074A1344FB60FB689B683A6847
:102920009A4201D0002300E0FB6818461437BD46E8
:1029300080BC7047D407002090B58FB000AFF8601E
:10294000B9607A603B6005F07FFB386200218E48F9
:10295000FEF747F907F110031A460021F868FFF760
:1029600071FA78627B6A002BC0F202813B695B6975
:10297000FB61FB695B6BBB61FB695B697B61BB688E
:10298000002B42D13B691B6B002B03DC3B691B8D89
:10299000002B03D06FF028037B62ECE03B6920330F
:1029A0001846FFF7DAF90346002B03D06FF029032E
:1029B0007B62E0E03B691B6A7B630123BB627B6B4C
:1029C0003A6ADA607B6B10333B637B6B1B687B631B
:1029D0003B6920337A6B9A4208D07B6B03F110027B
:1029E0003B6B1A60BB6A0133BB62E8E700BF3B6B1D
:1029F00000221A603B691B6A10333B633B693A6BE8
:102A0000DA623B69BA6A1A6328E03B691946B8681A
:102A1000FFF76EFF78637B6B002B03D16FF0110320
:102A20007B62A8E03B691B6B002B03DC7B6BDB68E4
:102A3000002B03DD6FF028037B629CE07B6B3A6A1E
:102A4000DA607B6B10333B633B6B00221A6001231F
:102A5000BB623B691A8D013292B21A8500214A4845
:102A6000FEF7CFF809F0CAFA484B1B68B3F92220E9
:102A700092B2013292B212B25A84002009F0A6FA40
:102A8000BC697B69BA6CB96A386BA047F86209F017
:102A9000B5FA3E4B1B68B3F9222092B2013A92B2CA
:102AA00012B25A84002009F091FAFB6A002B01DA75
:102AB000FB6A7B62FA6ABB6A9A4202DB6FF004032C
:102AC0007B6200213048FEF78CF8BB68002B03D1F5
:102AD0003B6900221A6304E03B691A8D013A92B205
:102AE0001A853B695B6B002B2CDD3B699A6B013AC5
:102AF0009A639B6B002B25D13B69DB6B0121184648
:102B000004F09AF91EE03B6B103B7B63FB6A5A1E94
:102B1000FA62002B10D17B6B1D4A9B1A9B101D4A39
:102B200002FB03F30133BB603B6BDA697B681A601D
:102B30003B6B1A6A3B681A607B6B0022DA603B6B66
:102B40001B683B633B6B002BDDD17B6A002B11DBE9
:102B5000BB68342202FB03F3343B0D4A134418468E
:102B6000FFF7C6F900210848FEF74BF8BB6807E0FD
:102B700000BF00E000BF00210348FEF742F87B6A77
:102B800018463C37BD4690BD68010020381400202F
:102B9000D4070020C54EECC480B588B000AF786083
:102BA00039600023BB61244B1B68FB613AE0FB6981
:102BB0007B617B69DB6903F0F003102B0CBF012301
:102BC0000023DBB23B613A683B699A4226D17B69BC
:102BD000DB6BFB6009F012FA184B1B68B3F922207B
:102BE00092B2013292B212B25A84002009F0EEF988
:102BF0007B695A69FB68002178689847B86109F0D9
:102C0000FDF90E4B1B68B3F9222092B2013A92B241
:102C100012B25A84002009F0D9F900E000BFFB6924
:102C20001B68FB61FB69044A9342C0D1BB6918462B
:102C30002037BD4680BD00BFBC03002038140020F3
:102C400080B582B000AF01211548FDF7CAFF002111
:102C50004FF0FF30FFF7A0FF786001214FF0FF3009
:102C6000FFF79AFF786000210D48FDF7BAFF0021B9
:102C70000B48FDF7C6FF01216FF00100FFF78CFF45
:102C8000786000216FF00100FFF786FF7860012176
:102C90000348FDF7B6FF7B6818460837BD4680BD80
:102CA0006801002080B586B000AF786000237B61AA
:102CB000FFF7B0F8F860FB68002B03D16FF0180342
:102CC0003B6164E000213448FDF78BFF7B6803F033
:102CD0000F03042B42D0042B3CD8032B2BD0032B07
:102CE00038D8012B02D0022B10D033E02B4B1B68BD
:102CF000002B08DD7B6803F40043002B03D16FF049
:102D000040033B613DE001237B612AE0234B1B68CC
:102D10006FF00042934203D16FF02A033B6130E031
:102D20001E4B1B6801331D4A1360FB689B685A1CCD
:102D3000FB689A6015E0FB689B68002B10DDFB6860
:102D40009B685A1EFB689A60144B1B68013B134A30
:102D5000136005E06FF010033B6112E000BF00E07C
:102D600000BF00210C48FDF74CFF7B69002B05D00C
:102D7000FFF766FF38613B69002B07DB074B1B68D9
:102D800006E000210448FDF73CFF00E000BF3B697E
:102D900018461837BD4680BD680100200026002077
:102DA00080B500AF00210748FDF71BFF0648FEF77E
:102DB000C5FF054B00229A6000210248FDF721FF64
:102DC00000BF80BD680100201C0B002080B582B0D0
:102DD00000AF1A4B1B68002B2CD000211848FDF7C0
:102DE00000FF184B1A68154B9B68D31A154A1360DD
:102DF000124B00229A6012E0104B1B68083B7B606C
:102E00007B6800221A6100210D48FDF7FAFE0021BF
:102E10007868FFF731FB00210948FDF7E2FE07481B
:102E2000FEF79BFF0346002BE6D000210448FDF788
:102E3000E8FE00E000BF0837BD4680BD1C0B002047
:102E4000680100200026002080B582B000AF1F4836
:102E5000FEF774FF00237B6011E01D4A7B689B0135
:102E60001344103300221A607B689B01184A1344F4
:102E700016491846FEF782FF7B6801337B607B684A
:102E80000F2BEADD1348FEF759FF00237B6015E0A6
:102E9000114A7B68342101FB03F3134408330022F9
:102EA0001A607B68342202FB03F30B4A134409497E
:102EB0001846FEF763FF7B6801337B607B680F2B4E
:102EC000E6DD002318460837BD4680BDCC0700204C
:102ED000CC030020140B0020D407002080B400AFE6
:102EE00000231846BD4680BC704700BF80B483B045
:102EF00000AF78607B687A681A607B687A685A608D
:102F000000BF0C37BD4680BC704780B483B000AFB3
:102F100078607B681B687A689A420CBF01230023A3
:102F2000DBB218460C37BD4680BC704780B483B016
:102F300000AF786039603B685A687B685A607B688C
:102F40003A681A603B685B687A681A603B687A681E
:102F50005A6000BF0C37BD4680BC704780B485B056
:102F600000AF78607B681B687A689A4201D10023C1
:102F70000BE07B681B68FB60FB681A687B681A6063
:102F8000FB681B687A685A60FB6818461437BD46B0
:102F900080BC704780B400AF054B1B68002BCCBFD2
:102FA00001230023DBB21846BD4680BC704700BF3A
:102FB0001026002080B485B000AFF860B9607A6058
:102FC0007B6803F00103002B09D0FB685A69BB68DA
:102FD0001340002B14BF01230023DBB209E0FB6880
:102FE0005A69BB681340BA689A420CBF0123002398
:102FF000DBB218461437BD4680BC704780B582B03E
:1030000000AF0E48FFF772FF0D4B3B600D4B7B602E
:103010000AE07B6800229A607B6808491846FFF73F
:1030200085FF7B6818337B607A683B689A42F0D3EF
:10303000002318460837BD4680BD00BFA80C0020FD
:10304000A80C0020280B002080B588B000AF786065
:103050000923BB617B685A68BB69DB431340002BC3
:1030600002D06FF00A033EE008F0C8FF7861204804
:10307000FFF774FF38613B69002B03D16FF0210328
:10308000FB611DE03B691B4A9B1ADB101A4A02FBDD
:1030900003F30133FB603B691846FFF727FF3B69E9
:1030A000FA689A607B681A683B69DA607B685A68DC
:1030B0003B691A617B689A683B695A61FB68FB61EE
:1030C0007B69002B0BD10D4B1A680D4B1B689A4284
:1030D00005D00C4B1B68002B01D109F0C5FA7869AB
:1030E00008F074FFFB6918462037BD4680BD00BF5D
:1030F000A80C0020280B0020ABAAAAAA3814002094
:103100003C1400203414002080B586B000AF7860F5
:1031100000237B617B68002B02DD7B68102B02DDC6
:103120006FF0110332E07B685A1E13465B001344B4
:10313000DB00184A13443B6108F060FFF8603B690C
:103140009B68002B03D16FF029037B610BE03B6987
:10315000184606F0FBFE3B690F491846FFF7E6FEEE
:103160003B6900229A60FB68002B0BD10B4B1A685D
:103170000B4B1B689A4205D00A4B1B68002B01D1F0
:1031800009F072FAF86808F021FF7B6918461837D1
:10319000BD4680BD280B0020A80C0020381400205C
:1031A0003C1400203414002080B58AB000AF786051
:1031B000396000233B627B68002B02DD7B68102BAB
:1031C00002DD6FF011036AE07B685A1E13465B0054
:1031D0001344DB00344A1344FB6108F00FFFB8616D
:1031E000FB699B68002B03D16FF029033B6243E02E
:1031F000FB695A693B681A43FB695A61FB691B68A2
:103200007B6233E07B6A7B617B6A1B687B627B69E4
:103210001B6C3B617B695B6CFB60FA683969F86920
:10322000FFF7C8FE0346002B20D07B699B6CFA6930
:1032300052691A60786906F0D3FDFB6803F0200339
:10324000002B0AD0FB695A693B69DB431A40FB69D2
:103250005A61FB695B69002B0DD0FB6803F010031A
:10326000002B03D0FB6900225A6105E0FB697A6AF2
:103270009A42C7D100E000BFBB69002B0BD10B4BBA
:103280001A680B4B1B689A4205D00A4B1B68002B2F
:1032900001D109F0E9F9B86908F098FE3B6A1846CF
:1032A0002837BD4680BD00BF280B00203814002001
:1032B0003C1400203414002080B586B000AF786044
:1032C000396000237B617B68002B02DD7B68102B5B
:1032D00002DD6FF011032CE07B685A1E13465B0081
:1032E0001344DB00154A13443B6108F087FEF86085
:1032F0003B699B68002B03D16FF029037B6105E0DC
:103300003B695A693B681A403B695A61FB68002B6C
:103310000BD10B4B1A680B4B1B689A4205D00A4B1A
:103320001B68002B01D109F09FF9F86808F04EFEE8
:103330007B6918461837BD4680BD00BF280B0020AA
:10334000381400203C1400203414002080B584B0D0
:1033500000AF786039607B681B6B5A1E13465B00B8
:103360001344DB00054A1344FB607968F86806F0F3
:1033700051FE00BF1037BD4680BD00BF280B0020A6
:1033800080B588B000AFF860B9607A603B60002318
:103390007B61FB68002B02DDFB68102B02DD6FF008
:1033A0001103A3E0BB68002B02D16FF010039DE076
:1033B0007B6823F03103002B02D06FF0100395E0FF
:1033C000BB6AB3F1FF3F02DA6FF010038EE0494BA6
:1033D0001B68002B0DD1FFF7DDFD0346002B08D144
:1033E000454B1B68002B04D008F0FCFD0346002B66
:1033F00002D06FF0180379E0FB685A1E13465B0099
:103400001344DB003D4A1344FB6108F0F7FDB8614B
:10341000FB699B68002B03D16FF029037B6152E0AD
:10342000FB691B6903F00803002B0AD1FB691846EE
:10343000FFF76BFD0346002B03D16FF028037B6180
:1034400041E07A68B968F869FFF7B4FD0346002BDC
:1034500018D0FB695A693B681A607B6803F0200347
:10346000002B06D0FB695A69BB68DB431A40FB6935
:103470005A617B6803F01003002B24D0FB69002203
:103480005A6120E0FB691B6903F00103002B01D0A6
:103490001B4A00E01B4A184B1B68DA62164B1B687C
:1034A00007F11402DA63144B1B68BA681A64124BF2
:1034B0001B687A685A64104B1B683A689A64B96A48
:1034C000F86906F071FDBB69002B0BD10A4B1A6835
:1034D0000D4B1B689A4205D0064B1B68002B01D18F
:1034E00009F0C2F8B86908F071FD7B691846203709
:1034F000BD4680BD3414002038140020280B002065
:10350000F4FB0000E8FB00003C14002080B586B00E
:1035100000AF7860396000237B617B68002B02DD9F
:103520007B68102B02DD6FF0110335E07B685A1EBB
:1035300013465B001344DB00194A13443B6108F057
:103540005DFDF8603B699B68002B03D16FF0290398
:103550007B610EE03B69DA683B681A603B6918469C
:1035600006F00FFD02463B685A603B695A693B68AA
:103570009A60FB68002B0BD10A4B1A680A4B1B6838
:103580009A4205D0094B1B68002B01D109F06CF859
:10359000F86808F01BFD7B6918461837BD4680BDEA
:1035A000280B0020381400203C1400203414002084
:1035B00080B586B000AF786039607B682F2B02D968
:1035C0006FF0100331E03B68002B0DD03B681B68A7
:1035D000012B02D96FF00A0327E03B681B687B616F
:1035E0003B685B683B6103E000237B6100233B6138
:1035F00008F004FDF8607B683A697969184609F0BB
:103600006BF9B860FB68002B0BD10A4B1A680A4BA8
:103610001B689A4205D0094B1B68002B01D109F0A9
:1036200023F8F86808F0D2FCBB6818461837BD4686
:1036300080BD00BF381400203C140020341400204A
:1036400080B500AF09F076F900BF80BD80B483B0CB
:1036500000AF78607B687A681A607B687A685A6025
:1036600000BF0C37BD4680BC704780B483B000AF4C
:1036700078607B681B687A689A420CBF012300233C
:10368000DBB218460C37BD4680BC704780B483B0AF
:1036900000AF786039603B685A687B685A607B6825
:1036A0003A681A603B685B687A681A603B687A68B7
:1036B0005A6000BF0C37BD4680BC704780B483B0F1
:1036C00000AF78607B681B687A689A4209D07B6893
:1036D0005B687A6812681A607B681B687A6852684F
:1036E0005A6000BF0C37BD4680BC704780B485B0BF
:1036F00000AF78607B681B687A689A4201D100232A
:103700000BE07B681B68FB60FB681A687B681A60CB
:10371000FB681B687A685A60FB6818461437BD4618
:1037200080BC704780B483B000AF786039600BE034
:1037300001223B689A407B681340002B01D03B6814
:1037400006E03B6801333B603B681F2BF0DD202324
:1037500018460C37BD4680BC704780B483B000AFBC
:1037600078607B68D3F80C31002B03D07B68D3F8EA
:103770000C3105E07B681B687A68DB0013445B68EA
:1037800018460C37BD4680BC704780B584B000AF8A
:10379000786039603B6893F82630FB6038687A6857
:1037A000FB68DB0013445B681946FFF76FFF7B681B
:1037B000D3F808210121FB6801FA03F31A437B685F
:1037C000C3F808213B6893F8283003F00203DBB20A
:1037D000002B03D07B683A68C3F80C217B681B6818
:1037E000FA689A4202DA7B68FA681A6000BF1037FA
:1037F000BD4680BD80B584B000AF786039603B685D
:1038000093F82630FB607B68D3F80C313A689A4213
:1038100003D17B680022C3F80C213B681846FFF7F0
:103820004DFF3B6893F8283003F00103DBB2002B17
:1038300007D03A6892F8283023F0010382F8283044
:1038400029E0FB68DB007A68134404331846FFF76D
:103850000CFF0346002B1BD07B68D3F80821012105
:10386000FB6801FA03F3DB431A407B68C3F80821C5
:103870007B681B68FA689A420CD17B68D3F80831E0
:10388000F9681846FFF74EFF02467B681A6002E0AF
:1038900000BF00E000BF1037BD4680BD80B584B0DA
:1038A00000AF786008F0AAFBB8602C4B1B6893F857
:1038B0002830C3F34003DBB2FB60FB68002B33D13D
:1038C0007B681B68002B13D17B681846FFF7BEFE90
:1038D0000123FB60214B1A6892F8283043F0020361
:1038E00082F828301D4B1B681D4AC2F80C311BE0C2
:1038F0001A4B1B6819461A48FFF77CFF174B1A68CA
:1039000092F8283043F0010382F82830134B1B68EB
:103910001A467B6819461046FFF7B8FE1048FFF7B5
:103920001CFF03460F4A1360BB68002B0BD10B4BE7
:103930001A680C4B1B689A4205D00B4B1B68002B76
:1039400001D108F091FEB86808F040FBFB68002B3D
:1039500000D1A7E700BF1037BD4680BD3814002056
:10396000401400203C1400203414002080B584B0A2
:1039700000AF786008F042FBF860234B1A6892F8B9
:10398000283023F0020382F82830204B0022C3F8AD
:103990000C217B681846FFF7A9FEB860BB68002BB6
:1039A00003D17B6800221A6011E0BA6892F82830CF
:1039B00023F0010382F82830BA6892F8283043F0E7
:1039C000020382F82830B9681048FFF7DEFE0F487E
:1039D000FFF7C3FE03460E4A1360FB68002B0BD1B2
:1039E000094B1A680A4B1B689A4205D0094B1B68A1
:1039F000002B01D108F038FEF86808F0E7FA00BFA4
:103A00001037BD4680BD00BF381400204014002090
:103A10003C1400203414002080B483B000AF7860E0
:103A20007B687A681A607B687A685A6000BF0C37D6
:103A3000BD4680BC704780B483B000AF78607B68BF
:103A40001B687A689A420CBF01230023DBB2184638
:103A50000C37BD4680BC704780B483B000AF78603F
:103A600039603B685A687B685A607B683A681A60BC
:103A70003B685B687A681A603B687A685A6000BF86
:103A80000C37BD4680BC704780B485B000AF78600D
:103A90007B681B687A689A4201D100230BE07B683F
:103AA0001B68FB60FB681A687B681A60FB681B6810
:103AB0007A685A60FB6818461437BD4680BC704768
:103AC00080B400AF054B1B68002BCCBF0123002343
:103AD000DBB21846BD4680BC704700BF10260020F0
:103AE00080B485B000AF786039603B68FB6007E068
:103AF000BB685A687B685B689A4208DCBB68FB60FD
:103B0000FB681B68BB60BB68002BF1D100E000BF05
:103B10007B68BA681A60FB687A681A6000BF14375D
:103B2000BD4680BC704780B582B000AF0D48FFF73E
:103B300073FF0D4B3B600D4B7B600AE07B680022FE
:103B40009A607B6807491846FFF786FF7B681C333D
:103B50007B607A683B689A42F0D3002318460837A6
:103B6000BD4680BD900D0020900D0020B00C0020BF
:103B700080B588B000AF78600323BB617B685A686A
:103B8000BB69DB431340002B02D06FF00A033DE01A
:103B900008F034FA78611F48FFF776FF38613B6917
:103BA000002B03D16FF02103FB611CE03B691A4A33
:103BB0009B1A9B10194A02FB03F30133FB603B691C
:103BC0001846FFF729FF3B69FA689A607B681A6814
:103BD0003B69DA607B685A683B691A613B6900227D
:103BE0005A61FB68FB617B69002B0BD10C4B1A6897
:103BF0000C4B1B689A4205D00B4B1B68002B01D164
:103C000008F032FD786908F0E1F9FB6918462037C1
:103C1000BD4680BD900D0020B00C0020B76DDBB616
:103C2000381400203C1400203414002080B586B0E5
:103C300000AF786000237B617B68002B02DD7B682E
:103C4000082B02DD6FF0110332E07B685A1E134629
:103C5000DB009B1A9B00184A13443B6108F0CEF925
:103C6000F8603B699B68002B03D16FF029037B61EF
:103C70000BE03B69184606F069F93B690F491846A5
:103C8000FFF7EAFE3B6900229A60FB68002B0BD12C
:103C90000B4B1A680B4B1B689A4205D00A4B1B68EA
:103CA000002B01D108F0E0FCF86808F08FF97B697F
:103CB00018461837BD4680BDB00C0020900D00207E
:103CC000381400203C1400203414002080B586B045
:103CD00000AF7860396000237B617B68002B02DDD8
:103CE0007B68082B02DD6FF0110365E07B685A1ECC
:103CF0001346DB009B1A9B00314A13443B6108F0DA
:103D00007DF9F8603B699B68002B03D16FF02903B4
:103D10007B613EE03B691B6903F00203002B07D087
:103D20003B685B68002B03DC6FF010037B6130E0C5
:103D30003B691846FFF77FFE0346002B0AD13B691B
:103D40001B68BB60BB681B6C3A681A60B86806F0F9
:103D500047F81EE03B691B6903F00203002B06D005
:103D60003B69143319463868FFF7BAFE11E03B6827
:103D700000221A603B695B69002B03D13B693A68FA
:103D80005A6103E03B699B693A681A603B693A688B
:103D90009A61FB68002B0BD10A4B1A680A4B1B680F
:103DA0009A4205D0094B1B68002B01D108F05CFC3E
:103DB000F86808F00BF97B6918461837BD4680BDD6
:103DC000B00C0020381400203C14002034140020D3
:103DD00080B584B000AF786039607B681B6B5A1E79
:103DE0001346DB009B1A9B00054A1344FB6079686D
:103DF000F86806F00FF900BF1037BD4680BD00BF60
:103E0000B00C002080B588B000AFF860B9607A606F
:103E100000237B61FB68002B02DDFB68082B02DDC1
:103E20006FF0110369E07B68B3F1FF3F02DA6FF0D6
:103E3000100362E0334B1B68002B0DD1FFF740FEEF
:103E40000346002B08D1304B1B68002B04D008F030
:103E5000C9F80346002B02D06FF018034DE0FB6851
:103E60005A1E1346DB009B1A9B00284A1344FB6131
:103E700008F0C4F8B861FB699B68002B03D16FF0B0
:103E800029037B6126E0FB695B69002B09D0FB6994
:103E90005A69BB681A60BB681B681A68FB695A617B
:103EA00018E0FB691B6903F00103002B01D0184ADD
:103EB00000E0184A144B1B68DA62134B1B6807F1C9
:103EC0001402DA63104B1B68BA681A647968F869DF
:103ED00006F06AF8BB69002B0BD10B4B1A680E4B2E
:103EE0001B689A4205D0074B1B68002B01D108F0D4
:103EF000BBFBB86908F06AF87B6918462037BD46F5
:103F000080BD00BF3414002038140020B00C002005
:103F10000CFC000000FC00003C14002080B586B0C2
:103F200000AF7860396000237B617B68002B02DD85
:103F30007B68082B02DD6FF0110335E07B685A1EA9
:103F40001346DB009B1A9B00194A13443B6108F09F
:103F500055F8F8603B699B68002B03D16FF029038B
:103F60007B610EE03B69DA683B681A603B69184682
:103F700006F007F802463B685A603B695A693B689D
:103F80009A60FB68002B0BD10A4B1A680A4B1B681E
:103F90009A4205D0094B1B68002B01D108F064FB45
:103FA000F86808F013F87B6918461837BD4680BDDD
:103FB000B00C0020381400203C14002034140020E1
:103FC00080B483B000AF78607B687A681A607B68E1
:103FD0007A685A6000BF0C37BD4680BC704780B419
:103FE00083B000AF786039603B685A687B685A607C
:103FF0007B683A681A603B685B687A681A603B685D
:104000007A685A6000BF0C37BD4680BC704780B4E8
:1040100083B000AF78607B681B687A689A4209D0E9
:104020007B685B687A6812681A607B681B687A68CC
:1040300052685A6000BF0C37BD4680BC704780B4E0
:1040400085B000AF786039607B680C33FB607B68BB
:104050001B68002B00DA03339B101A463B6893421F
:104060002BDD0023BB6010E0FB6808335B68BB609E
:10407000BA683B689A4208DCBA683B689A4202DA3E
:10408000FB681B6824E0FB6822E0FB685B68FB6060
:104090007B680C33FA689A42E6D1BA683B689A4268
:1040A00002DBFB681B6813E0FB6811E0FB68083368
:1040B0005B681A463B68934208DDFB681B68FB603F
:1040C0007B680C33FA689A42F0D100E000BFFB68CD
:1040D00018461437BD4680BC704780B584B000AF29
:1040E000786039603B681A683B680833D31AFB6014
:1040F000F9687868FFF7A3FFB8603B685B6823F056
:1041000001031A463B685A607B680C33BA689A42CE
:1041100027D0BB6808335B681A46FB68934220D1FE
:10412000BB6803F108023B68103312681A60BB6871
:1041300008333A6810321A603B681033BA680832A4
:104140005A603B6810331B68002B05D03B68103366
:104150001B683A6810325A603B68083300221A60C4
:104160000EE03B680833B9681846FFF738FF3B6834
:10417000103300221A603B681033FA685A6000BF9F
:1041800000BF1037BD4680BD80B582B000AF7860FB
:104190007B681B68002B15D17B6803F108027B68E4
:1041A00008335B6812681A607B6808331B68002B51
:1041B00020D07B6803F108027B6808331B685268D3
:1041C0005A6017E07B6808331B68002B0FD07B68B0
:1041D00008331B68083B79681846FFF700FF7B68C7
:1041E00003F108027B6808331B6852685A607868DC
:1041F000FFF70DFF00BF0837BD4680BD80B483B018
:1042000000AF786039603B687A685A607B681A68EA
:104210003B681A607B681B685B6803F001023B68BF
:104220001A437B681B685A607B683A681A6000BF53
:104230000C37BD4680BC704780B483B000AF786057
:104240007B685B6823F001031A467B681B68136078
:104250007B681B685B6803F001027B685B6823F086
:1042600001031A437B681B685A6000BF0C37BD46C8
:1042700080BC704780B586B000AF78607B68002B4B
:1042800001DC002345E07B680F2B02D810237B6004
:1042900004E07B68073323F007037B6007F0AEFE82
:1042A00038611E4B1B6879681846FFF7C8FE7861B5
:1042B0001A4B1B680C337A699A4202D100237B6146
:1042C00023E07869FFF760FF7B69083BFB607B694F
:1042D00008335B681A467B68D31A172B0ED97B68A4
:1042E0000833FA681344BB60B968F868FFF786FFC3
:1042F0000A4B1B68B9681846FFF7EFFEFB685B685E
:1043000043F001031A46FB685A60386907F05EFE05
:104310007B6918461837BD4680BD00BF980D002048
:1043200080B584B000AF786039607B683A6802FB82
:1043300003F3FB60F868FFF79DFFB860BB68002BD4
:1043400001D1002305E0FA680021B868FCF714FDEC
:10435000BB6818461037BD4680BD80B586B000AF3B
:10436000786039603B68002B08D03868FFF782FF1F
:1043700078617B69002B03D100231EE000237B6161
:104380007B68002B18D07B69002B12D07B68083B20
:104390003B613B691A683B690833D31AFB603A6892
:1043A000FB689342A8BF13461A4679687869FCF700
:1043B0002FFD786800F005F87B6918461837BD4670
:1043C00080BD80B584B000AF786007F017FEB8609C
:1043D0007B68083BFB60FB685B6823F001031A46BF
:1043E000FB685A60FB681B685B6803F00103002BE5
:1043F0000AD1FB681B6808331846FFF7C5FEFB6847
:104400001B681846FFF718FFFB685B685B6803F0E2
:104410000103002B0CD1FB685B68FB60FB68083371
:104420001846FFF7B1FEFB681B681846FFF704FF4C
:10443000064B1B68F9681846FFF74FFEB86807F08F
:10444000C5FD00BF1037BD4680BD00BF980D0020E0
:1044500080B500AF064B1B6804331846FFF7B0FD6C
:10446000034B1B680C331846FFF7AAFD00BF80BD45
:10447000980D002080B582B000AF2E4B1B6803332F
:1044800023F003031A462B4B1A602A4B1B682A4A57
:104490001360284B1B6814331A46264B1A60254BB1
:1044A0001B68073323F007031A46224B1A60214B7F
:1044B0001B687B60214B1B681A461E4B1B68D31A76
:1044C000A3F110021C4B1B681A601C4B1B68194A95
:1044D0001360FFF7BDFF184B1B681B6808337A6831
:1044E00013443B60144B1B68043339681846FFF7CC
:1044F00085FE114B1B68043379681846FFF77EFE72
:104500003B685B6843F001031A463B685A600A4BFC
:104510001B689B6843F00102074B1B689A60064BBF
:104520001B6879681846FFF7D8FD0023184608373E
:10453000BD4680BD14260020980D002018260020BE
:1045400080B483B000AF78607B687A681A607B685B
:104550007A685A6000BF0C37BD4680BC704780B493
:1045600083B000AF78607B681B687A689A420CBFA2
:1045700001230023DBB218460C37BD4680BC7047D0
:1045800080B483B000AF786039603B685A687B685C
:104590005A607B683A681A603B685B687A681A60A0
:1045A0003B687A685A6000BF0C37BD4680BC7047D4
:1045B00080B485B000AF78607B681B687A689A42E7
:1045C00001D100230BE07B681B68FB60FB681A6865
:1045D0007B681A60FB681B687A685A60FB6818463B
:1045E0001437BD4680BC704780B400AF054B1B68D4
:1045F000002BCCBF01230023DBB21846BD4680BC94
:10460000704700BF1026002080B483B000AF7860F0
:104610007B6800221A6000BF0C37BD4680BC704723
:1046200080B483B000AF78607B685B6A7A68D269D7
:10463000134418460C37BD4680BC704780B582B025
:1046400000AF1048FFF77CFF0F4B3B600F4B7B60C8
:104650000FE07B6800229A607B6830331846FFF7D2
:10466000D3FF7B6807491846FFF78AFF7B6838331A
:104670007B607A683B689A42EBD300231846083780
:10468000BD4680BD5C0F00205C0F00209C0D00200B
:1046900080B588B000AF786040F22133BB617B68A1
:1046A0005A68BB69DB431340002B02D06FF00A034A
:1046B0009DE07B689B68002B02DC6FF0100396E0A6
:1046C0007B68DB68002B02DC6FF010038FE04A4B45
:1046D0001B68002B0DD1FFF787FF0346002B08D185
:1046E000464B1B68002B04D007F07CFC0346002BD4
:1046F00002D06FF018037AE07B68DB68033323F0A5
:1047000003037B617B689A687B6902FB03F33B616F
:104710007B685B6803F02003002B0BD07B68DB68B1
:104720007A699A4202D06FF0100360E07B681B69DF
:10473000FB6109E03869FFF79DFDF861FB69002B1B
:1047400002D16FF0200352E007F058FC2C48FFF72D
:104750002FFFF860002007F039FCFB68002B0BD11D
:104760007B685B6803F02003002B02D1F869FFF738
:1047700028FE6FF021033AE0FB6830331846FFF75C
:104780008DF8FB681F4A9B1ADB101F4A02FB03F3DC
:104790000133BB60FB681846FFF7D2FE7B681A68DE
:1047A000FB68DA607B685A68FB681A617B689A6804
:1047B000FB681A62FB681A6AFB685A61FB687A69CF
:1047C0009A61FB683A69DA61FB68FA695A62FB68C8
:1047D0005A6AFB689A62FB680022DA62FB68BA6870
:1047E0009A60FB6830331846FFF7C0F8BB6818467C
:1047F0002037BD4680BD00BF34140020381400208F
:104800005C0F00209C0D0020B76DDBB680B586B034
:1048100000AF786000237B6100233B610023FB60D5
:104820007B68002B02DD7B68082B02DD6FF0110333
:1048300052E02B4B1B68002B0DD1FFF7D5FE034632
:10484000002B08D1274B1B68002B04D007F0CAFBB4
:104850000346002B02D06FF018033DE07B685A1E20
:104860001346DB009B1ADB001F4A1344BB60BB6886
:1048700030331846FFF712F8BB689B68002B03D152
:104880006FF02903FB6016E007F0B8FBBB685B6ABA
:104890007B61BB681B693B61BB68184605F056FB32
:1048A000BB6812491846FFF76BFEBB6800229A608E
:1048B000002007F08BFBBB6830331846FFF756F833
:1048C0007B69002B07D03B6903F02003002B02D14A
:1048D0007869FFF776FDFB6818461837BD4680BD3E
:1048E00034140020381400209C0D00205C0F0020A0
:1048F00080B584B000AF786039607B681B6B5A1E4E
:104900001346DB009B1ADB00054A1344FB60796801
:10491000F86805F07FFB00BF1037BD4680BD00BFC3
:104920009C0D002080B588B000AFF860B9607A6057
:1049300000233B61FB68002B02DDFB68082B02DDD6
:104940006FF0110390E07B68B3F1FF3F02DA6FF084
:10495000100389E0464B1B68002B0DD1FFF744FE86
:104960000346002B08D1434B1B68002B04D007F0F3
:1049700039FB0346002B02D06FF0180374E0FB688C
:104980005A1E1346DB009B1ADB003B4A1344FB61B3
:10499000FB6930331846FEF781FFFB699B68002BEB
:1049A00003D16FF029033B6122E0FB691B6A002BF6
:1049B00025DDFB69DB6A002B0AD0FB69DB6ABB6182
:1049C000BB691A68FB69DA62BB68BA691A600AE0F7
:1049D000FB699A6ABB681A60FB699B6AFA6992690B
:1049E0001A44FB699A62FB691B6A5A1EFB691A62C8
:1049F000FB6930331846FEF7B9FF3B6934E000BF6E
:104A000007F0FCFA7861FB691B6903F00103002BD6
:104A100001D01A4A00E01A4A164B1B68DA62154B9D
:104A20001B6807F11002DA63124B1B68BA681A643C
:104A30007968F86905F0B8FAFB6930331846FEF773
:104A400095FF7B69002B0BD10A4B1A680D4B1B6835
:104A50009A4205D0064B1B68002B01D107F004FEDB
:104A6000786907F0B3FA3B6918462037BD4680BD28
:104A700034140020381400209C0D002024FC000079
:104A800018FC00003C14002080B586B000AF7860B0
:104A9000396000237B617B68002B02DD7B68082B7B
:104AA00002DD6FF0110375E03C4B1B68002B0DD14C
:104AB000FFF79AFD0346002B08D1394B1B68002BEA
:104AC00004D007F08FFA0346002B02D06FF01803D2
:104AD00060E07B685A1E1346DB009B1ADB00314AFC
:104AE00013443B613B6930331846FEF7D7FE3B6900
:104AF0009B68002B03D16FF029037B6144E03B6985
:104B00005B6A3A689A4213D33869FFF789FD024617
:104B10003B6893420CD23B695B6A3A68D31A3A69A4
:104B2000926993FBF2F101FB02F29B1A002B03D076
:104B30006FF010037B6127E007F060FA3B691846CD
:104B4000FFF70DFD0346002B0DD13B691B68BB60D1
:104B5000BB681B6C3A681A60B86805F041F9002020
:104B600007F034FA10E0002007F030FA3B68FB60F1
:104B70003B69DA6AFB681A603B69FA68DA623B698A
:104B80001B6A5A1C3B691A623B6930331846FEF7B0
:104B9000EDFE7B6918461837BD4680BD34140020F1
:104BA000381400209C0D002080B584B000AF7860E0
:104BB00039600023FB607B68002B02DD7B68082BDB
:104BC00002DD6FF0110344E0244B1B68002B0DD174
:104BD000FFF70AFD0346002B08D1214B1B68002B71
:104BE00004D007F0FFF90346002B02D06FF0180342
:104BF0002FE07B685A1E1346DB009B1ADB00194A24
:104C00001344BB60BB6830331846FEF747FEBB68F1
:104C10009B68002B03D16FF02903FB6013E007F0C2
:104C2000EDF9BB68184605F0ACF902463B685A60DE
:104C3000002007F0CBF9BB68DA683B681A60BB68F4
:104C40001A6A3B689A60BB6830331846FEF78EFEDE
:104C5000FB6818461037BD4680BD00BF34140020E5
:104C6000381400209C0D002080B483B000AF786021
:104C70007B687A681A607B687A685A6000BF0C3774
:104C8000BD4680BC704780B483B000AF78607B685D
:104C90001B687A689A420CBF01230023DBB21846D6
:104CA0000C37BD4680BC704780B483B000AF7860DD
:104CB00039603B685A687B685A607B683A681A605A
:104CC0003B685B687A681A603B687A685A6000BF24
:104CD0000C37BD4680BC704780B485B000AF7860AB
:104CE0007B681B687A689A4201D100230BE07B68DD
:104CF0001B68FB60FB681A687B681A60FB681B68AE
:104D00007A685A60FB6818461437BD4680BC704705
:104D100080B400AF054B1B68002BCCBF01230023E0
:104D2000DBB21846BD4680BC704700BF102600208D
:104D300080B483B000AF78607B680F2B01DC102358
:104D40007B607B68073323F0070318460C37BD46AA
:104D500080BC704780B582B000AF78607B6820333C
:104D60001846FFF790FF0346002B01D0002303E015
:104D70007B685B6A08335B6818460837BD4680BDB0
:104D800080B582B000AF0E48FFF76EFF0D4B3B6061
:104D90000D4B7B600AE07B6800229A607B680849C3
:104DA0001846FFF781FF7B6834337B607A683B6885
:104DB0009A42F0D3002318460837BD4680BD00BF95
:104DC0003410002034100020640F002080B588B01B
:104DD00000AF786039607B6814337B617B6818337F
:104DE0003A689A4203D17B681B6BFB6102E03B6827
:104DF0000833FB613B681A687B6828339A4206D106
:104E00007B681B6B7A6852691344BB6102E03B68A4
:104E10001B68BB61BA69FB69D31A3B613969786960
:104E2000FFF70DF9F8603B685B6823F001031A4651
:104E30003B685A607B690C33FA689A4226D0FB685B
:104E400008335B681A463B6993421FD1FB6803F144
:104E50000802FB69083312681A60FB680833FA69B4
:104E600008321A60FB690833FA6808325A60FB6935
:104E700008331B68002B05D0FB6908331B68FA69EF
:104E800008325A60FB6900221A600CE0F968F86980
:104E9000FFF70AFFFB69083300221A60FB69083339
:104EA0003A695A6000BF00BF2037BD4680BD80B55B
:104EB00086B000AF786039607B6814333B61396835
:104EC0003869FFF7BCF8F8603B690C33FA689A421E
:104ED00001D1002335E0F868FFF756F97B681B6BBA
:104EE000FA689A4203D17B6818337B6102E0FB6861
:104EF000083B7B61FB6808335B681A463B68D31A42
:104F0000172B16D93B68FA681344BB60B9687869F7
:104F1000FFF774F9BB681A687B6828339A4204D19A
:104F2000B9687868FFF752FF03E0B9683869FFF79E
:104F3000D4F87B695B6843F001031A467B695A60C9
:104F4000FB6818461837BD4680BD80B586B000AFF7
:104F5000786039607B681433FB607B681B6B3A6850
:104F60009A4203D17B6818337B6102E03B68083BBF
:104F70007B617B695B6803F00103002B02D16FF05A
:104F800010034BE07B695B6823F001031A467B69E1
:104F90005A607B691B685B6803F00103002B0AD130
:104FA0007B691B6808331846FFF7EEF87B691B68BE
:104FB0001846FFF741F97B695B685B6803F0010302
:104FC000002B16D17B695B687B617B6818337A693B
:104FD0009A4203D17B681B6B3B6102E07B6908331B
:104FE0003B613869FFF7D0F87B691B681846FFF70B
:104FF00023F97B6818337A699A4205D07B691A686D
:105000007B6828339A4204D179697868FFF7DEFE1D
:1050100003E07969F868FFF760F80023184618374D
:10502000BD4680BD80B586B000AF786018E07B6873
:105030001B687B617B691B6C3B617868FFF78AFEAC
:1050400002463B69934213DC39697868FFF72FFF0A
:10505000F8607B695B6CFA681A60786904F0C0FEDE
:105060007B681846FFF70FFE0346002BDFD000E0F9
:1050700000BF00BF1837BD4680BD80B582B000AF0D
:1050800078607B6818331846FFF7EEFD7B682033A5
:105090001846FFF7E9FD7B6803F118027B682833A7
:1050A00019461046FFF7AAF87B68DB6A43F0010354
:1050B0001A467B68DA627B68183319467868FFF70E
:1050C00085FE00BF0837BD4680BD80B58AB000AF01
:1050D000786040F22133FB617B685A68FB69DB43EF
:1050E0001340002B02D06FF00A0393E07B689B68AB
:1050F000002B05DD7B689B681A46484B9A4202D913
:105100006FF0100386E0464B1B68002B0DD1FFF7B4
:10511000FFFD0346002B08D1424B1B68002B04D037
:1051200006F060FF0346002B02D06FF0180371E019
:105130007B689B681846FFF7FBFDB8617B685B687E
:1051400003F02003002B0BD07B689B68BA699A425E
:1051500002D06FF010035DE07B68DB687B6209E0E2
:10516000B869FFF787F878627B6A002B02D16FF08D
:1051700020034FE006F042FF78612B48FFF7ACFDBB
:1051800038613B69002B03D16FF021033B6222E0C1
:105190003B69264A9B1A9B10254A02FB03F3013305
:1051A000FB603B691846FFF75FFD3B69FA689A6050
:1051B0007B681A683B69DA607B685A683B691A61E8
:1051C0003B69BA695A613B697A6A1A633869FFF7C1
:1051D00054FFFB683B627B69002B0BD1114B1A68B3
:1051E000144B1B689A4205D00D4B1B68002B01D154
:1051F00007F03AFA786906F0E9FE3B6A002B08DA14
:105200007B685B6803F02003002B02D1786AFFF70C
:10521000D8F83B6A18462837BD4680BDF8FFFF7FA7
:10522000341400203814002034100020640F0020B3
:10523000C54EECC43C14002080B588B000AF786047
:105240000023FB610023BB6100237B617B68002B93
:1052500002DD7B68042B02DD6FF0110357E02E4B5B
:105260001B68002B0DD1FFF753FD0346002B08D11F
:105270002A4B1B68002B04D006F0B4FE0346002B1B
:1052800002D06FF0180342E07B68013B342202FB3E
:1052900003F3234A13443B6106F0B0FEF8603B6918
:1052A0009B68002B03D16FF029037B6111E03B6900
:1052B0001B6BFB613B691B69BB613B69184604F0D2
:1052C00045FE3B6917491846FFF7EEFC3B69002293
:1052D0009A60FB68002B0BD1104B1A68124B1B68AD
:1052E0009A4205D00C4B1B68002B01D107F0BCF98A
:1052F000F86806F06BFE7B69002B07D1BB6903F0F1
:105300002003002B02D1F869FFF75BF87B69184690
:105310002037BD4680BD00BF341400203814002063
:10532000640F0020341000203C14002080B584B0AD
:1053300000AF786039607B681B6B013B342202FB55
:1053400003F3084A1344FB603B68002B03DB7968D6
:10535000F86804F05FFEF868FFF764FE00BF1037DE
:10536000BD4680BD640F002080B582B000AF78607C
:105370004FF0FF317868FFF7D9FF00BF0837BD460F
:1053800080BD80B588B000AFF860B9607A603B60DE
:105390000023FB6100233B61FB68002B02DDFB68FF
:1053A000042B02DD6FF011038CE0BB68002B03DDE2
:1053B000BB68464A934202D96FF0100382E03B6813
:1053C000B3F1FF3F02DA6FF010037BE0404B1B6844
:1053D000002B0DD1FFF79CFC0346002B08D13D4B61
:1053E0001B68002B04D006F0FDFD0346002B02D005
:1053F0006FF0180366E0FB68013B342202FB03F305
:10540000354A1344BB61B868FFF792FCB86006F0F8
:10541000F5FD7861BB699B68002B03D16FF0290310
:105420003B613CE0BB695B69BA689A4203DD6FF09F
:1054300010033B6133E0274B1B681946B86904F041
:10544000FBFD0246234B1B689A420BD1B968B86931
:10545000FFF72DFDF861FB69002B03D07B68FA692B
:105460001A601CE0BB691B6903F00103002B01D02B
:105470001A4A00E01A4A174B1B68DA62154B1B6880
:1054800007F11002DA63134B1B68BA681A64114BF8
:105490001B687A685A643968B86904F085FD7B69CD
:1054A000002B0BD10B4B1A680E4B1B689A4205D090
:1054B000074B1B68002B01D107F0D6F8786906F07E
:1054C00085FD3B6918462037BD4680BDF8FFFF7F4C
:1054D0003414002038140020640F00203CFC00002D
:1054E00030FC00003C14002080B586B000AF78602E
:1054F000396000237B617B68002B02DD7B68042B15
:1055000002DD6FF0110358E02E4B1B68002B0DD10C
:10551000FFF7FEFB0346002B08D12B4B1B68002B2B
:1055200004D006F05FFD0346002B02D06FF0180395
:1055300043E07B68013B342202FB03F3234A13441C
:105540003B6106F05BFDF8603B699B68002B03D173
:105550006FF029037B611DE03B691B6B3A689A423F
:1055600007D33B691B6B3A69526913443A689A4204
:1055700003D96FF010037B610CE039683869FFF7DD
:10558000E4FC78617B69002B03DB3869FFF74AFD97
:1055900000E000BFFB68002B0BD10B4B1A680C4BD3
:1055A0001B689A4205D0074B1B68002B01D107F0FE
:1055B0005BF8F86806F00AFD7B6918461837BD46A7
:1055C00080BD00BF3414002038140020640F002078
:1055D0003C14002080B58AB000AF786039600023A9
:1055E000BB617B68002B02DD7B68042B02DD6FF062
:1055F000110373E03B4B1B68002B0DD1FFF788FBB9
:105600000346002B08D1384B1B68002B04D006F052
:10561000E9FC0346002B02D06FF018035EE07B68C4
:10562000013B342202FB03F3304A13447B6106F052
:10563000E5FC38617B699B68002B03D16FF029037F
:10564000BB6138E07B69DA683B681A607B691846A1
:1056500004F097FC02463B685A600023FB617B69BB
:105660001B6A7B6219E07B6A08335B68FB60FA693E
:10567000FB681344FB617B6A08331B683B6206E0EE
:10568000FA69FB681344FB613B6A1B683B623B6A37
:10569000002BF5D17B6A1B687B627B6920337A6AB9
:1056A0009A42E0D13B68FA699A607869FFF752FB49
:1056B00002463B68DA603B69002B0BD10A4B1A6843
:1056C0000B4B1B689A4205D0064B1B68002B01D17F
:1056D00006F0CAFF386906F079FCBB69184628371E
:1056E000BD4680BD3414002038140020640F002013
:1056F0003C14002080B483B000AF78607B687A6887
:105700001A607B687A685A6000BF0C37BD4680BC5F
:10571000704780B483B000AF78607B681B687A689C
:105720009A420CBF01230023DBB218460C37BD465A
:1057300080BC704780B483B000AF786039603B684C
:105740005A687B685A607B683A681A603B685B6895
:105750007A681A603B687A685A6000BF0C37BD46A9
:1057600080BC704780B485B000AF78607B681B68F0
:105770007A689A4201D100230BE07B681B68FB60CA
:10578000FB681A687B681A60FB681B687A685A6055
:10579000FB6818461437BD4680BC704780B400AF24
:1057A000054B1B68002BCCBF01230023DBB218463E
:1057B000BD4680BC704700BF1026002080B483B077
:1057C00000AF786039603B6804337A68526A93426C
:1057D00094BF01230023DBB218460C37BD4680BCC2
:1057E000704780B483B000AF78607B685A6A7B688A
:1057F000DB699A420CBF01230023DBB218460C3749
:10580000BD4680BC704780B582B000AF0D48FFF741
:1058100071FF0D4B3B600D4B7B600AE07B68002203
:105820009A607B6807491846FFF784FF7B6834332A
:105830007B607A683B689A42F0D3002318460837A9
:10584000BD4680BDDC110020DC1100203C10002092
:1058500080B588B000AFF860B9607A60FB68DB6A39
:10586000FB61FB681B6BBB61FB685B6A1A467B686C
:10587000033323F00303D31A043B1A46FB685A622E
:10588000FB69BA6913447A681A60FB690433FB61E7
:10589000FB68DB69FA699A4201DB0023FB61FB6864
:1058A000DA69FB69D31A7B617A697B689A4211DAFB
:1058B000FB69BA6913447A69B9681846FBF7A8FA14
:1058C0007B69BA681344BB607A687B69D31A7B60D2
:1058D0000023FB61FB69BA6913447A68B96818460A
:1058E000FBF796FA7B68033323F00303FA6913444A
:1058F000FB61FB68DB69FA699A4201DB0023FB610B
:10590000FB68FA69DA6200BF2037BD4680BD80B50A
:1059100084B000AF786016E07B681B68FB60FB68B2
:105920005B6CBB60B9687868FFF748FF0346002BE3
:1059300011D0FB681B6CBA6819467868FFF788FFBE
:10594000F86804F04DFA7B681846FFF7E2FE03465C
:10595000002BE1D000E000BF00BF1037BD4680BD86
:1059600080B58AB000AF78602123FB617B685A68FC
:10597000FB69DB431340002B02D06FF00A0398E071
:105980007B689B68002B02DA6FF0100391E07B6864
:10599000DB68002B02DC6FF010038AE07B689B68F9
:1059A000033323F00303BB61BB69002B1BDD7B6862
:1059B0005B6803F02003002B0BD07B689B68BA69FF
:1059C0009A4202D06FF0100373E07B681B697B6220
:1059D0000BE0B869FEF74EFC78627B6A002B04D1BD
:1059E0006FF0200365E000237B6206F007FB78611F
:1059F0003248FFF7B7FE38613B69002B03D16FF0E7
:105A000021033B6233E03B692D4A9B1A9B102D4AD0
:105A100002FB03F30133FB603B691846FFF76AFEA4
:105A20003B69FA689A607B681A683B69DA607B6850
:105A30005A683B691A613B6914331846FFF75AFEEE
:105A40003B697A6A1A633B69BA695A623B695A6A66
:105A50003B69DA617B68DA683B691A623B6900225C
:105A6000DA623B69DA6A3B699A62FB683B627B698E
:105A7000002B0BD1144B1A68144B1B689A4205D0AB
:105A8000134B1B68002B01D106F0EEFD786906F080
:105A90009DFA3B6A002B0BDA7B6A002B08D07B68EF
:105AA0005B6803F02003002B02D1786AFEF789FCC3
:105AB0003B6A18462837BD4680BD00BFDC11002078
:105AC0003C100020C54EECC4381400203C140020CB
:105AD0003414002080B586B000AF786000237B616D
